:1000000066C1000092C1000090C100008EC10000D6
:100010008CC100008AC1000088C1000086C10000B8
:1000200084C1000082C1000080C100007EC10000C8
:100030007CC100007AC1000078C1000076C10000D8
:1000400074C1000072C1000070C100006EC10000E8
:100050006CC100006AC1000068C10000F4C4000067
:1000600064C10000BAC400008FC400005EC100007B
:100070005CC100005AC1000058C1000056C1000018
:1000800054C1000052C1000050C100004EC1000028
:100090004CC100004AC1000048C1000046C1000038
:1000A00044C1000042C1000040C100003EC1000048
:1000B0003CC100003AC1000038C1000036C1000058
:1000C00034C1000032C1000030C100002EC1000068
:1000D0002CC100002AC1000028C1000026C1000078
:1000E00024C10000E502E802D702DB02E1021F039F
:1000F000EC02F002F602FA02FE02040308030C030B
:100100001F03120316031A03B103B603BB03C5038F
:10011000CF034804D903E103E903F303FD03070414
:100120001604200448042A0434043E04F0068B0715
:100130008B0795078B07470795079507860747079E
:1001400047074707F0069A0795079A078607470764
:1001500047074707470747074707470790079A0793
:100160004707470790074707F0069A07860747079C
:100170004707470747074707A107470747074707B5
:1001800047074707A107470747074707900747075C
:1001900047074707470747074707470790074707A6
:1001A00047074707A1074707A107F00600002100FE
:1001B000240027002A002D00300033000101000038
:1001C000040107010A0100002200250028002B007D
:1001D0002E003100340002010000050108010B016E
:1001E000000020002300260029002C002F003200F0
:1001F00000010000030106010901050505050705C9
:1002000008080808020202020A0A08080404040492
:1002100001010101010101010303030303030303BE
:10022000040707070C0C0C0C0C0C0C0C020202024D
:1002300006060606060606060B0B0B0B0B0B0B0B36
:1002400001021020200808102040102040800201E8
:1002500002010804020101020408102040808040CD
:1002600020100804020180040201804020100804CC
:10027000020108040201010204081020408001026A
:1002800004081020408000000A0B02090C0D0E0823
:10029000070304010000000000000000000000004F
:1002A000000000000000000000000000000000004E
:1002B000000012111000000000000000000000000B
:1002C000000000000000000000000000CA07112428
:1002D0001FBECFEFD1E2DEBFCDBF00E00CBF12E00A
:1002E000A0E0B2E0E0EBF0E100E00BBF02C007905D
:1002F0000D92A232B107D9F722E0A2E2B2E001C02A
:100300001D92AE3CB207E1F711E0C7E6D1E000E094
:1003100005C021970109802FFE01B6D6C636D10748
:1003200080E00807B1F7D9D3C1C66ACECF92DF9279
:10033000EF92FF920F931F93CF93DF936C017A019B
:100340008B01C0E0D0E0CE15DF0589F0D8016D91BA
:100350008D01D601ED91FC910190F081E02DC60157
:100360001995892B11F47E0102C02196ECCFC701AB
:10037000DF91CF911F910F91FF90EF90DF90CF9081
:100380000895089580E090E00895FC01538D448D18
:10039000252F30E0842F90E0821B930B541710F030
:1003A000CF96089501970895FC01918D828D98173D
:1003B00061F0828DDF01A80FB11D5D968C91928D49
:1003C0009F5F9F73928F90E008958FEF9FEF089546
:1003D000FC01918D828D981731F0828DE80FF11D0F
:1003E000858D90E008958FEF9FEF0895FC01918D2A
:1003F000228D892F90E0805C9F4F821B91098F7323
:100400009927089581E392E0F1DF21E0892B09F437
:1004100020E0822F0895FC01848DDF01A80FB11D1B
:10042000A35ABF4F2C91848D90E001968F7399272A
:10043000848FA689B7892C93A089B1898C91806417
:100440008C93938D848D981306C00288F389E02DD8
:1004500080818F7D80830895EF92FF920F931F9389
:10046000CF93DF93EC0181E0888F9B8D8C8D981367
:1004700005C0E889F989808185FD23C0F62E0B8DA2
:1004800010E00F5F1F4F0F731127E02E8C8DE812C5
:100490000BC00FB607FCFACFE889F989808185FF88
:1004A000F5CFCE01B8DFF2CF8B8DFE01E80FF11D45
:1004B000E35AFF4FF0820B8FEA89FB8980818062CB
:1004C00007C0EE89FF896083E889F98980818064AB
:1004D000808381E090E0DF91CF911F910F91FF9099
:1004E000EF900895CF93DF93EC01888D8823C1F0BE
:1004F000EA89FB89808185FD05C0A889B9898C912D
:1005000086FD0EC00FB607FCF5CF808185FFF2CFC8
:10051000A889B9898C9185FFEDCFCE017CDFE8CF2A
:10052000DF91CF91089580E090E0892B19F06ADF88
:10053000811125C080E090E0892B41F080E090E0BF
:10054000892B21F00E94000081111CC080E090E006
:10055000892B41F080E090E0892B21F00E9400007F
:10056000811113C080E090E0892BA1F080E090E041
:10057000892B81F00E94000081110AC008950E9419
:100580000000D8CF0E940000E1CF0E940000EACF17
:100590000C940000089590E0FC013197E231F105E0
:1005A00008F04DC08827EE58FF4F8F4F6DC58091E2
:1005B00080008F7703C0809180008F7D80938000C2
:1005C000089580918000877FF9CF84B58F7702C02E
:1005D00084B58F7D84BD08958091B0008F7703C06E
:1005E0008091B0008F7D8093B0000895809190003D
:1005F0008F7707C0809190008F7D03C0809190001D
:10060000877F8093900008958091A0008F7707C026
:100610008091A0008F7D03C08091A000877F809390
:10062000A0000895809120018F7707C0809120015C
:100630008F7D03C080912001877F809320010895E2
:100640001F93CF93DF93282F30E0F901EA57FD4F36
:100650008491F901E05CFD4FD491F901E650FE4F21
:10066000C491CC23C1F0162F811195DFEC2FF0E05F
:10067000EE0FFF1FEA53FE4FA591B4918FB7F89488
:10068000111105C09C91ED2FE095E92302C0EC917A
:10069000ED2BEC938FBFDF91CF911F910895CF93F6
:1006A000DF9390E0FC01E05CFD4F2491FC01E650FB
:1006B000FE4F8491882361F190E0880F991FFC011F
:1006C000E455FE4FC591D491FC01EA53FE4FA5912C
:1006D000B491611109C09FB7F89488812095822355
:1006E0008883EC912E230BC0623061F49FB7F8949D
:1006F0003881822F809583238883EC912E2B2C9335
:100700009FBF06C08FB7F894E8812E2B28838FBF38
:10071000DF91CF9108951F93CF93DF93182FEB01B3
:1007200061E0BDDF209711F460E004C0CF3FD10548
:1007300031F461E0812FDF91CF911F9181CFE12FC3
:10074000F0E0EA57FD4FE4914E2F50E0FA01319767
:10075000E231F10508F09CC08827EC57FF4F8F4F1E
:1007600093C484B5806884BDC7BD97C084B58062DA
:1007700084BDC8BD92C08091800080688093800055
:10078000D0938900C093880088C0809180008062E7
:1007900080938000D0938B00C0938A007EC08091AC
:1007A0008000886080938000D0938D00C0938C007F
:1007B00074C08091B00080688093B000C093B30093
:1007C0006CC08091B00080628093B000C093B40090
:1007D00064C080919000806880939000D0939900CD
:1007E000C09398005AC080919000806280939000DE
:1007F000D0939B00C0939A0050C080919000886075
:1008000080939000D0939D00C0939C0046C080913F
:10081000A00080688093A0008091A0008F7B8093CF
:10082000A000D093A900C093A80037C08091A00079
:1008300080628093A000D093AB00C093AA002DC02B
:100840008091A00088608093A000D093AD00C093F9
:10085000AC0023C080912001806880932001D09358
:100860002901C093280119C08091200180628093E2
:100870002001D0932B01C0932A010FC08091200149
:10088000886080932001D0932D01C0932C0105C076
:10089000C038D1050CF04DCF47CFDF91CF911F91DC
:1008A00008958F929F92AF92BF92CF92DF92EF9274
:1008B000FF920F931F93CF93DF9300D01F92CDB77A
:1008C000DEB78B012FEF30E0DC01E6D324E6C22E49
:1008D000D12CE12CF12CA701960189D349015A01B1
:1008E0002FEF30E0D801D8D3A701960180D3B4010F
:1008F00082E029833A834B835C830DDF29813A812F
:10090000B90183E00F900F900F900F90DF91CF917E
:100910001F910F91FF90EF90DF90CF90BF90AF901D
:100920009F908F90F8CE60E087E18ADE61E086E1FB
:1009300087DE61E088E184DE60E089E181CE61E00C
:1009400087E17EDE60E086E17BDE60E088E178DEE4
:1009500061E089E175CE60E087E172DE60E086E10A
:100960006FDE60E088E16CDE60E089E169CE61E025
:1009700087E166DE60E086E163DE61E088E160DEFB
:1009800060E089E15DCE8ED31F920F920FB60F9279
:1009900011240BB60F922F933F934F935F936F9356
:1009A0007F938F939F93AF93BF93EF93FF9381E3D5
:1009B00092E031DDFF91EF91BF91AF919F918F91C7
:1009C0007F916F915F914F913F912F910F900BBE4F
:1009D0000F900FBE0F901F9018951F920F920FB699
:1009E0000F9211240BB60F922F938F939F93EF9337
:1009F000FF93E0914102F09142028081E091470231
:100A0000F091480282FD12C0908180914A028F5F6E
:100A10008F7320914B02821751F0E0914A02F0E06F
:100A2000EF5CFD4F958F80934A0201C08081FF915A
:100A3000EF919F918F912F910F900BBE0F900FBE52
:100A40000F901F9018951F920F920FB60F921124BE
:100A50002F933F938F939F93AF93BF9380912702E0
:100A600090912802A0912902B0912A023091260289
:100A700023E0230F2D3720F40196A11DB11D05C0E1
:100A800026E8230F0296A11DB11D20932602809314
:100A9000270290932802A0932902B0932A02809102
:100AA000220290912302A0912402B0912502019686
:100AB000A11DB11D8093220290932302A0932402D2
:100AC000B0932502BF91AF919F918F913F912F914C
:100AD0000F900FBE0F901F901895CF93DF93CDB757
:100AE000DEB7A1970FB6F894DEBF0FBECDBF7894E6
:100AF00084B5826084BD84B5816084BD85B5826023
:100B000085BD85B5816085BD80916E0081608093D3
:100B10006E0010928100809181008260809381003C
:100B2000809181008160809381008091800081604C
:100B3000809380008091B10084608093B1008091A7
:100B4000B00081608093B0008091910082608093BA
:100B5000910080919100816080939100809190003C
:100B60008160809390008091A10082608093A100B9
:100B70008091A10081608093A1008091A00081609C
:100B80008093A00080912101826080932101809157
:100B900021018160809321018091200181608093F7
:100BA000200180917A00846080937A0080917A009D
:100BB000826080937A0080917A00816080937A00CD
:100BC00080917A00806880937A001092C100E09151
:100BD0004102F091420282E08083E0913D02F09177
:100BE0003E021082E0913F02F09140028FEC808340
:100BF00010924902E0914502F091460286E080831E
:100C0000E0914302F0914402808180618083E09111
:100C10004302F0914402808188608083E091430226
:100C2000F0914402808180688083E0914302F091DA
:100C3000440280818F7D808361E087E130DD61E067
:100C400088E12DDD61E086E12ADD61E089E127DDD3
:100C500061E080E224DD60E081E221DD61E082E0AC
:100C60001EDD61E083E01BDD10922C0210922B024E
:100C700000912B0210912C02063011057CF4F80132
:100C8000EE0FFF1FEE5EFD4F60E0808108DD0F5F1D
:100C90001F4F10932C0200932B02EACFC12CD12CB2
:100CA0007601C39481E392E0A1DB181619060CF0DB
:100CB00054C181E392E078DB9093300280932F025D
:100CC0008833910509F486C02CF58333910509F426
:100CD0006DC074F48133910509F45EC00CF061C0FD
:100CE000C09709F035C160E070E080E090E076C028
:100CF0008533910509F464C00CF45DC08633910519
:100D000009F463C0C79709F023C166E470E086E484
:100D100090E064C08C34910509F43CC0B4F4823492
:100D2000910559F144F4C99709F012C16AE570E0E0
:100D30008AE590E053C08434910509F409C18634F2
:100D4000910509F005C113DE04C18335910509F44D
:100D5000FFC034F48235910509F0FAC0E4DDF9C032
:100D60008835910509F493C08137910509F0F0C0E9
:100D700064E670E084E690E031C060E087E160DC2A
:100D800061E086E15DDC60E088E15ADC61E089E1F8
:100D900057DCDFC0D4DDDDC06AE070E08AE090E0BF
:100DA0001DC064E170E084E190E018C06EE170E085
:100DB0008EE190E013C068E270E088E290E00EC03F
:100DC00062E370E082E390E009C06CE370E08CE3E2
:100DD00090E004C060E570E080E590E062DDB9C0BD
:100DE0006CE370E08CE390E05CDDC1DD81E392E0D8
:100DF000DBDA9093300280932F0281E392E0D4DA21
:100E00008837910509F4A4C010922C0210922B028D
:100E100000912B0210912C0206301105D4F1809123
:100E20002D0290912E02092E000CAA0BBB0B19A2C9
:100E3000FE01B196AC01BD014170552766277727A9
:100E4000B695A79597958795405D42930097A10524
:100E5000B10581F7309761F0DF010D900020E9F7CF
:100E60001197AD014E1B5F0BBF0181E392E05EDA8B
:100E700042E050E06EE172E081E392E057DAE09107
:100E80002D02F0912E02E034F10508F43AC063DD42
:100E9000ADCFF801EE0FFF1FEE5EFD4F20813181D7
:100EA0003327F901EA57FD4F8491F901E05CFD4FCA
:100EB000A490F901E650FE4FB490BB2009F44FC056
:100EC000811169DBEB2DF0E0EE0FFF1FE052FE4FCA
:100ED000A591B491EC91AE2209F441C0D701C601AD
:100EE000002E04C0880F991FAA1FBB1F0A94D2F7B7
:100EF0008095909520912D0230912E02822393238C
:100F00003EC08827EA56FF4F8F4FBEC06CE370E0AB
:100F10008CE390E01AC06CE370E08CE390E00EC0CC
:100F200068E270E088E290E010C068E270E088E279
:100F300090E004C06EE170E08EE190E0B2DCF3DCA2
:100F400055CF6EE170E08EE190E0ABDCF8DC4ECF87
:100F500002DD1092300210922F02E5DAA3CE20912A
:100F60002D0230912E02D701C601002E04C0880F39
:100F7000991FAA1FBB1F0A94D2F7822B932B909321
:100F80002E0280932D020F5F1F4F10932C020093AF
:100F90002B023ECFE1E3F2E01382128288EE93E06F
:100FA000A0E0B0E084839583A683B78384E092E0D9
:100FB0009183808385EC90E09587848784EC90E032
:100FC0009787868780EC90E0918B808B81EC90E016
:100FD000938B828B82EC90E0958B848B86EC90E0F7
:100FE000978B868B118E128E138E148E0895052E7C
:100FF00097FB16F400940FD057FD05D014D007FCD2
:1010000002D046F408C050954095309521953F4F49
:101010004F4F5F4F089590958095709561957F4FE4
:101020008F4F9F4F0895A1E21A2EAA1BBB1BFD01F3
:101030000DC0AA1FBB1FEE1FFF1FA217B307E407B7
:10104000F50720F0A21BB30BE40BF50B661F771F0F
:10105000881F991F1A9469F76095709580959095EF
:101060009B01AC01BD01CF010895A29FB001B39FC8
:10107000C001A39F700D811D1124911DB29F700DA1
:10108000811D1124911D0895EE0FFF1F881F8BBF36
:101090000790F691E02D1994E8DFB7FF0895821BC1
:1010A000930B089581E090E0F89400C0F894FFCF8E
:1010B000000000002C029601C5017202F601D40165
:1010C000E8011F001E001D001C001B001A000D0A75
:0210D00000001E
:00000001FF
