:1000000026C1000054C1000052C1000050C10000D0
:100010004EC100004CC100004AC1000048C10000B0
:1000200046C1000044C1000042C1000040C10000C0
:100030003EC100003CC100003AC1000038C10000D0
:1000400036C1000034C1000032C1000030C10000E0
:100050002EC100002CC100002AC10000FDC200001A
:1000600026C100003EC7000072C7000020C100008A
:100070001EC100001CC100001AC1000018C1000010
:1000800016C1000014C1000012C1000010C1000020
:100090000EC100000CC100000AC1000008C1000030
:1000A00006C1000004C1000002C1000000C1000040
:1000B000FEC00000FCC00000FAC00000F8C0000054
:1000C000F6C00000F4C00000F2C00000F0C0000064
:1000D000EEC00000ECC00000EAC00000E8C0000074
:1000E000E6C000004E045304580462046C04E504A6
:1000F00076047E04860490049A04A404B304BD0428
:10010000E504C704D104DB0406050905F804FC0472
:10011000020540050D05110517051B051F052505E1
:1001200029052D054005330537053B0500000A0B61
:1001300002090C0D0E080703040100000000000076
:1001400000000000000000000000000000000000AF
:10015000000000000000000012111000000000006C
:10016000000000000000000000000000000000008F
:1001700000000102102020080810204010204080BC
:10018000020102010804020101020408102040805B
:1001900080402010080402018004020180402010E9
:1001A0000804020108040201010204081020408032
:1001B0000102040810204080050505050705080810
:1001C0000808020202020A0A0808040404040101E1
:1001D00001010101010103030303030303030407F6
:1001E00007070C0C0C0C0C0C0C0C0202020206068D
:1001F0000606060606060B0B0B0B0B0B0B0B000083
:1002000020002300260029002C002F0032000001CE
:10021000000003010601090100002200250028005A
:100220002B002E00310034000201000005010801FE
:100230000B0100002100240027002A002D003000BF
:10024000330001010000040107010A01D90711244C
:100250001FBECFEFD1E2DEBFCDBF00E00CBF12E08A
:10026000A0E0B2E0E0EFF4E100E00BBF02C00790D5
:100270000D92A231B107D9F722E0A2E1B2E001C0AC
:100280001D92A03CB207E1F712E0CEE4D2E000E01C
:1002900006C022970109FE010BBF0E94720ACC34EE
:1002A000D10780E00807A9F7C8D60C94760AA8CE33
:1002B000CF92DF92EF92FF920F931F93E82FF92FC7
:1002C00005C0015011092109310961F1908196237E
:1002D0009417B9F305C0015011092109310911F131
:1002E000908196239413F7CFC12CD12CE12CF12CC3
:1002F0000AC08FEFC81AD80AE80AF80A0C151D05BB
:100300002E053F0579F080818623841791F36C2DAB
:100310007D2D8E2D9F2D1F910F91FF90EF90DF90DF
:10032000CF90089560E070E080E090E01F910F9121
:10033000FF90EF90DF90CF90089560E086E1DAD3F0
:1003400082E090E01BD261E086E1D4D38AE090E0C5
:1003500015D260E086E1CED320E432E44FE050E0F5
:1003600061E082E024D460931602709317028093B8
:1003700018029093190222E030E040E050E00E9421
:10038000500ACA01B9017BD726E933E44BE05DE3AB
:100390000E94CB0941D7609312027093130280939D
:1003A000140290931502089560E08BE0A3D360E0FF
:1003B00089E0A0D360E08AE09DD360E086E09AD334
:1003C00060E070E08CE047D260E070E08DE043C216
:1003D00061E08BE08FD360E089E08CD361E08AE05C
:1003E00089D360E086E086D36FEF70E08CE033D293
:1003F0006FEF70E08DE02FC260E08BE07BD361E0B7
:1004000089E078D360E08AE075D361E086E072D35A
:100410006FEF70E08CE01FD26FEF70E08DE01BC2D9
:1004200060E08BE067D360E089E064D360EA8AE053
:1004300061D360E086E05ED36FEF70E08CE00BD2BA
:100440006FEF70E08DE007C260E08BE053D360E0B7
:1004500089E050D360E58AE04DD360E086E04AD37E
:100460006FEF70E08CE0F7D16FEF70E08DE0F3C1DB
:1004700060EA8BE03FD360E089E03CD360E08AE053
:1004800039D360E086E036D36FEF70E08CE0E3D1E3
:100490006FEF70E08DE0DFC160E58BE02BD360E0B3
:1004A00089E028D360E08AE025D360E086E022D3AB
:1004B0006FEF70E08CE0CFD16FEF70E08DE0CBC1DB
:1004C00026E040E855E260E070E083E292E0A9D4E3
:1004D00061E086E1D6D260E082E0D3D260E088E0DD
:1004E000D0D260E087E0CDD260E085E0CAD260E0A3
:1004F00083E0C7D260E084E0C4D261E08BE0C1D287
:1005000061E089E0BED261E08CE0BBD261E08AE0CC
:10051000B8D261E086E0B5D261E08DE0B2C2CF939F
:10052000DF9387E01CD3019781F488E018D301970B
:1005300061F484E014D3019741F483E010D3019770
:1005400021F485E00CD30197B9F087E008D3892B1B
:1005500009F045C085E003D3892B09F040C084E051
:10056000FED2892B09F03BC01FDF6AE070E080E01B
:1005700090E0DF91CF91DDC017DF83E292E042D3BC
:100580001816190624F483E292E055D3EC01D5DE67
:10059000AB01BC012AE030E083E292E0F5D560E0F7
:1005A00072E083E292E091D5C8DE6D327140810540
:1005B00091056CF0C634D10511F40ADFD6CFC234F0
:1005C000D10511F419DFD1CFC235D10511F450DFB7
:1005D000CCCFCC34D10509F0C8CF22DFC6CF87E01D
:1005E000BED2019721F488E0BAD2019729F087E0C2
:1005F000B6D2892B91F40DC084E0B1D20197B9F73E
:1006000083E0ADD2019799F785E0A9D2892BA9F2B1
:10061000EECF88E0A4D2019701F387E0A0D2892B26
:1006200031F488E09CD2892B11F40EDF9ECF84E058
:1006300096D2892B29F488E092D2019709F4C7CF8A
:1006400084E08DD2892B09F090CF83E088D2892B6A
:1006500009F08BCF21DF89CF1F920F920FB60F9237
:1006600011242F933F938F939F93AF93BF938091C8
:100670001B0290911C02A0911D02B0911E023091AC
:100680001A0223E0230F2D3720F40196A11DB11D7E
:1006900005C026E8230F0296A11DB11D20931A0262
:1006A00080931B0290931C02A0931D02B0931E0224
:1006B00080911F0290912002A0912102B09122020C
:1006C0000196A11DB11D80931F0290932002A0935B
:1006D0002102B0932202BF91AF919F918F913F91E0
:1006E0002F910F900FBE0F901F9018953FB7F89461
:1006F00080911F0290912002A0912102B0912202CC
:1007000026B5A89B05C02F3F19F00196A11DB11D6C
:100710003FBF6627782F892F9A2F620F711D811D89
:10072000911D42E0660F771F881F991F4A95D1F7E8
:100730000895CF92DF92EF92FF92CF93DF936B01F8
:100740007C01D4DFEB01C114D104E104F10479F0A0
:1007500062D5CCDF6C1B7D0B683E7340A0F381E05B
:10076000C81AD108E108F108C851DC4FECCFDF917D
:10077000CF91FF90EF90DF90CF9008958230910558
:1007800038F0880F991F880F991F05970197F1F787
:100790000895789484B5826084BD84B5816084BDF9
:1007A00085B5826085BD85B5816085BDEEE6F0E0EA
:1007B000808181608083E1E8F0E010828081826046
:1007C0008083808181608083E0E8F0E080818160C7
:1007D0008083E1EBF0E0808184608083E0EBF0E0F7
:1007E000808181608083E1E9F0E0808182608083A4
:1007F000808181608083E0E9F0E080818160808396
:10080000E1EAF0E080818260808380818160808382
:10081000E0EAF0E0808181608083E1E2F1E08081C4
:1008200082608083808181608083E0E2F1E080816A
:1008300081608083EAE7F0E080818460808380814A
:1008400082608083808181608083808180688083F2
:100850001092C10008951F93CF93DF93182FEB01DF
:1008600061E00FD1209711F460E004C0CF3FD105C3
:1008700031F461E0812FDF91CF911F913BC1E12FD6
:10088000F0E0E45DFE4F449150E0FA013197E2312F
:10089000F10508F09AC0EE58FF4F1EC684B5806877
:1008A00084BDC7BD97C084B5806284BDC8BD92C0F9
:1008B00080918000806880938000D0938900C093ED
:1008C000880088C080918000806280938000D093EF
:1008D0008B00C0938A007EC08091800088608093E6
:1008E0008000D0938D00C0938C0074C08091B000C4
:1008F00080688093B000C093B3006CC08091B0005A
:1009000080628093B000C093B40064C08091900076
:10091000806880939000D0939900C09398005AC04B
:1009200080919000806280939000D0939B00C09350
:100930009A0050C080919000886080939000D0937E
:100940009D00C0939C0046C08091A0008068809369
:10095000A0008091A0008F7B8093A000D093A9007D
:10096000C093A80037C08091A00080628093A0004F
:10097000D093AB00C093AA002DC08091A0008860E6
:100980008093A000D093AD00C093AC0023C08091B1
:100990002001806880932001D0932901C093280111
:1009A00019C080912001806280932001D0932B0197
:1009B000C0932A010FC0809120018860809320019C
:1009C000D0932D01C0932C0105C0C038D1050CF087
:1009D00050CF4ACFDF91CF911F91089590E0FC0155
:1009E0003197E231F10508F04BC0EC57FF4F74C569
:1009F000809180008F7703C0809180008F7D8093ED
:100A00008000089580918000877FF9CF84B58F772B
:100A100002C084B58F7D84BD08958091B0008F772A
:100A200003C08091B0008F7D8093B00008958091C5
:100A300090008F7707C0809190008F7D03C08091D8
:100A40009000877F8093900008958091A0008F7719
:100A500007C08091A0008F7D03C08091A000877F98
:100A60008093A0000895809120018F7707C0809126
:100A700020018F7D03C080912001877F809320011A
:100A80000895CF93DF9390E0FC01EE58FE4F249140
:100A9000FC01E854FE4F8491882349F190E0880FCF
:100AA000991FFC01EE5CFD4FA591B491885E9D4FAE
:100AB000FC01C591D4919FB7611108C0F8948C9145
:100AC000209582238C93888182230AC0623051F45E
:100AD000F8948C91322F309583238C938881822BCC
:100AE000888304C0F8948C91822B8C939FBFDF91F4
:100AF000CF9108950F931F93CF93DF931F92CDB79C
:100B0000DEB7282F30E0F901E45DFE4F8491F90152
:100B1000EE58FE4F1491F901E854FE4F0491002362
:100B2000C1F0882319F0698359DF6981E02FF0E073
:100B3000EE0FFF1FE85EFD4FA591B4919FB7F894AB
:100B40008C91611103C01095812301C0812B8C937E
:100B50009FBF0F90DF91CF911F910F910895CF9379
:100B6000DF93282F30E0F901E45DFE4F8491F90115
:100B7000EE58FE4FD491F901E854FE4FC491CC23B6
:100B800089F081112BDFEC2FF0E0EE0FFF1FE25018
:100B9000FE4FA591B4912C912D2381E090E021F49A
:100BA00080E002C080E090E0DF91CF9108950F9344
:100BB0001F93762F90E0FC01EE58FE4F6491FC01EC
:100BC000E854FE4FE4917111762FF0E0EE0FFF1F15
:100BD000E250FE4F8591949189019A013F70472F11
:100BE00067DB611571058105910531F06F5F7F4FFE
:100BF0008F4F9F4F9F7003C060E070E0CB011F914B
:100C00000F910895FC01818D228D90E0805C9F4FB3
:100C1000821B91098F7399270895FC01918D828D14
:100C2000981731F0828DE80FF11D858D90E00895C1
:100C30008FEF9FEF0895FC01918D828D981761F0E1
:100C4000828DDF01A80FB11D5D968C91928D9F5F03
:100C50009F73928F90E008958FEF9FEF089580ED3E
:100C600097E0892B39F080E090E0892B19F098D13A
:100C7000811125C080E090E0892B41F080E090E078
:100C8000892B21F00E94000081111CC080E090E0BF
:100C9000892B41F080E090E0892B21F00E94000038
:100CA000811113C080E090E0892BA1F080E090E0FA
:100CB000892B81F00E94000081110AC008950E94D2
:100CC0000000D8CF0E940000E1CF0E940000EACFD0
:100CD0000C9400000895FC01848DDF01A80FB11D64
:100CE000A35ABF4F2C91848D90E001968F73992762
:100CF000848FA689B7892C93A089B1898C9180644F
:100D00008C93938D848D981306C00288F389E02D0F
:100D100080818F7D80830895CF93DF93EC01888D50
:100D20008823C1F0EA89FB89808185FD05C0A889F7
:100D3000B9898C9186FD0EC00FB607FCF5CF808176
:100D400085FFF2CFA889B9898C9185FFEDCFCE01BF
:100D5000C2DFE8CFDF91CF910895CF92DF92FF926B
:100D60000F931F93CF93DF931F92CDB7DEB76C0124
:100D700081E0D60158968C9358975B969C915B972F
:100D80005C968C915C97981307C05096ED91FC91FE
:100D90005197808185FD2DC0F601038D10E00F5F16
:100DA0001F4F0F731127F02EF601848DF81210C01B
:100DB0000FB607FCF9CFD6015096ED91FC915197F3
:100DC000808185FFF1CFC601698385DF6981ECCF22
:100DD000838DE80FF11DE35AFF4F6083D6015B96C8
:100DE0000C935B975296ED91FC91539780818062B2
:100DF0000CC0D6015696ED91FC91579760835096A2
:100E0000ED91FC91519780818064808381E090E036
:100E10000F90DF91CF911F910F91FF90DF90CF90B6
:100E20000895BF92CF92DF92EF92FF92CF93DF931C
:100E3000EC016A017B01B22EE889F98982E08083A6
:100E4000411581EE58076105710599F060E079E080
:100E50008DE390E0A701960101D3215031094109AA
:100E600051095695479537952795211580E1380703
:100E700090F0E889F989108260E874E88EE190E0EA
:100E8000A7019601EBD2215031094109510956952C
:100E9000479537952795EC85FD853083EE85FF8551
:100EA0002083188EEC89FD89B082EA89FB898081D4
:100EB00080618083EA89FB89808188608083EA89F8
:100EC000FB89808180688083EA89FB8980818F7DAE
:100ED0008083DF91CF91FF90EF90DF90CF90BF9014
:100EE00008951F920F920FB60F9211240BB60F9216
:100EF0002F938F939F93EF93FF93E0913302F091A1
:100F000034028081E0913902F0913A0282FD12C0F0
:100F1000908180913C028F5F8F7320913D028217F8
:100F200051F0E0913C02F0E0ED5DFD4F958F809334
:100F30003C0201C08081FF91EF919F918F912F9191
:100F40000F900BBE0F900FBE0F901F9018951F9221
:100F50000F920FB60F9211240BB60F922F933F935F
:100F60004F935F936F937F938F939F93AF93BF93B1
:100F7000EF93FF9383E292E0AEDEFF91EF91BF919A
:100F8000AF919F918F917F916F915F914F913F9121
:100F90002F910F900BBE0F900FBE0F901F901895C2
:100FA00083E292E02FDE21E0892B09F420E0822FFA
:100FB0000895109226021092250288EE93E0A0E098
:100FC000B0E08093270290932802A0932902B09367
:100FD0002A0286E092E0909324028093230285EC1B
:100FE00090E09093300280932F0284EC90E09093F5
:100FF00032028093310280EC90E09093340280932F
:10100000330281EC90E0909336028093350282ECBB
:1010100090E0909338028093370286EC90E09093B2
:101020003A028093390210923C0210923D021092D3
:101030003E0210923F0208950895ABDBFDDF40DAD7
:10104000CFE2D6E06CDA2097E9F309DEFBCFCF924E
:10105000DF92EF92FF920F931F93CF93DF936C0178
:101060007A01EB01E60EF71E00E010E0CE15DF0579
:1010700061F06991D601ED91FC910190F081E02D34
:10108000C6011995080F191FF1CFC801DF91CF9143
:101090001F910F91FF90EF90DF90CF900895611511
:1010A000710581F0DB010D900020E9F7AD014150A1
:1010B0005109461B570BDC01ED91FC910280F38135
:1010C000E02D199480E090E00895E9CFDC01ED91E6
:1010D000FC910190F081E02D19948F929F92AF9234
:1010E000BF92CF92DF92EF92FF920F931F93CF9315
:1010F000DF93CDB7DEB7A1970FB6F894DEBF0FBE72
:10110000CDBF7C01C42EE52FCB01D22E19A221E048
:101110002D1510F02AE0D22E8E010F5D1F4F8D2C61
:10112000912CA12CB12C6C2D7E2FA501940196D170
:101130008C2DD29E80191124015011098A3014F48B
:10114000805D01C0895CF80180832115310541056E
:10115000510521F0C22EE32FCA01E5CFB801C70126
:101160009EDFA1960FB6F894DEBF0FBECDBFDF9114
:10117000CF911F910F91FF90EF90DF90CF90BF9094
:10118000AF909F908F900895CF92DF92EF92FF9251
:101190000F931F93CF93DF93EC016A017B0121151D
:1011A000310579F4E881F9810190F081E02D642F17
:1011B000DF91CF911F910F91FF90EF90DF90CF9033
:1011C00019942A303105D9F477FF18C06DE27EDF1B
:1011D0008C0144275527BA014C195D096E097F0916
:1011E0002AE0CE017ADF800F911FDF91CF911F910E
:1011F0000F91FF90EF90DF90CF9008952AE0B70114
:10120000A601CE01DF91CF911F910F91FF90EF903A
:10121000DF90CF9062CF089504D06894B111B5C02B
:10122000089598D088F09F5790F0B92F9927B7511B
:10123000A0F0D1F0660F771F881F991F1AF0BA959A
:10124000C9F712C0B13081F09FD0B1E008959CC0C1
:10125000672F782F8827B85F39F0B93FCCF3869590
:1012600077956795B395D9F73EF4909580957095ED
:1012700061957F4F8F4F9F4F0895E89409C097FB6A
:101280003EF490958095709561957F4F8F4F9F4F5D
:101290009923A9F0F92F96E9BB279395F6958795A1
:1012A00077956795B795F111F8CFFAF4BB0F11F464
:1012B00060FF1BC06F5F7F4F8F4F9F4F16C088230B
:1012C00011F096E911C0772321F09EE8872F762F41
:1012D00005C0662371F096E8862F70E060E02AF082
:1012E0009A95660F771F881FDAF7880F969587956E
:1012F00097F9089597F99F6780E870E060E0089596
:101300009FEF80EC089500240A941616170618061D
:101310000906089500240A941216130614060506F9
:101320000895092E0394000C11F4882352F0BB0F8A
:1013300040F4BF2B11F460FF04C06F5F7F4F8F4FED
:101340009F4F089557FD9058440F551F59F05F3F28
:1013500071F04795880F97FB991F61F09F3F79F0D7
:1013600087950895121613061406551FF2CF469559
:10137000F1DF08C0161617061806991FF1CF8695DB
:101380007105610508940895E894BB2766277727BF
:10139000CB0197F908950BD0C4CFB5DF28F0BADFA1
:1013A00018F0952309F0A6CFABCF1124EECFCADFFA
:1013B000A0F3959FD1F3950F50E0551F629FF00168
:1013C000729FBB27F00DB11D639FAA27F00DB11DC1
:1013D000AA1F649F6627B00DA11D661F829F22274A
:1013E000B00DA11D621F739FB00DA11D621F839FD1
:1013F000A00D611D221F749F3327A00D611D231FA7
:10140000849F600D211D822F762F6A2F11249F57F4
:1014100050408AF0E1F088234AF0EE0FFF1FBB1F17
:10142000661F771F881F91505040A9F79E3F5105B6
:1014300070F060CFAACF5F3FECF3983EDCF3869567
:1014400077956795B795F795E7959F5FC1F7FE2B61
:10145000880F911D9695879597F90895A1E21A2E08
:10146000AA1BBB1BFD010DC0AA1FBB1FEE1FFF1F48
:10147000A217B307E407F50720F0A21BB30BE40B98
:10148000F50B661F771F881F991F1A9469F76095DF
:101490007095809590959B01AC01BD01CF01089599
:1014A000052E97FB16F400940FD057FD05D0D6DF1C
:1014B00007FC02D046F408C0509540953095219520
:1014C0003F4F4F4F5F4F0895909580957095619570
:1014D0007F4F8F4F9F4F0895EE0FFF1F0590F491A0
:1014E000E02D19940790F691E02D1994F894FFCF10
:1014F000090000000000AD06270802061B060D06C5
:021500008C0657
:00000001FF
