:100000000C9462000C948A000C948A000C948A0070
:100010000C948A000C948A000C948A000C948A0038
:100020000C948A000C948A000C948A000C948A0028
:100030000C948A000C948A000C948A000C948A0018
:100040000C9402020C948A000C9445050C947705DC
:100050000C948A000C948A000C948A000C948A00F8
:100060000C948A000C948A00000000080002010031
:100070000003040700000000000000000102040863
:100080001020408001020408102001020408102002
:10009000040404040404040402020202020203032E
:1000A00003030303000000002300260029000000D2
:1000B0000000250028002B0000000000240027007D
:1000C0002A00A70511241FBECFEFD8E0DEBFCDBFA9
:1000D00011E0A0E0B1E0E0EAF0E102C005900D928D
:1000E000A231B107D9F721E0A2E1B1E001C01D9230
:1000F000A03CB207E1F710E0C4ECD0E004C02297C6
:10010000FE010E944A08C23CD107C9F70E94EB05D4
:100110000C944E080C940000CF92DF92EF92FF9265
:100120000F931F93E82FF92F05C0015011092109E2
:10013000310961F1908196239417B9F305C00150FC
:1001400011092109310911F1908196239413F7CFF8
:10015000C12CD12CE12CF12C0AC08FEFC81AD80A7F
:10016000E80AF80A0C151D052E053F0579F0808177
:100170008623841791F36C2D7D2D8E2D9F2D1F913D
:100180000F91FF90EF90DF90CF90089560E070E0C6
:1001900080E090E01F910F91FF90EF90DF90CF9063
:1001A000089560E087E00E949E0360E086E00E9480
:1001B0009E0360E085E00E949E0360E084E00E9470
:1001C0009E0360E070E089E00E94DD0260E070E084
:1001D00083E00C94DD0261E087E00E949E0360E012
:1001E00086E00E949E0361E085E00E949E0360E03D
:1001F00084E00E949E036FEF70E089E00E94DD02C0
:100200006FEF70E083E00C94DD0260E087E00E9415
:100210009E0361E086E00E949E0360E085E00E940C
:100220009E0361E084E00E949E036FEF70E089E02E
:100230000E94DD026FEF70E083E00C94DD0260E06D
:1002400087E00E949E0361E086E00E949E0361E0D9
:1002500085E00E949E0360E084E00E949E036FEFB1
:1002600070E089E00E94DD026FEF70E083E00C94A3
:10027000DD0261E087E00E949E0360E086E00E946C
:100280009E0360E085E00E949E0361E084E00E949E
:100290009E036FEF70E089E00E94DD026FEF70E077
:1002A00083E00C94DD0226E040E855E260E070E077
:1002B00083E291E00E94E30461E089E00E9465032B
:1002C00061E087E00E94650361E086E00E946503CB
:1002D00061E083E00E94650361E085E00E946503C0
:1002E00061E084E00E94650361E088E00E946503AC
:1002F00060E082E00C94650360E088E00E949E0369
:1003000082E090E00E94970261E088E00E949E03F4
:100310008AE090E00E94970260E088E00E949E03DD
:1003200020E432E44FE050E061E082E00E94D40338
:10033000609316017093170180931801909319012F
:1003400022E030E040E050E00E942908CA01B901F3
:100350000E94180726E933E44BE05DE30E94A407FE
:100360000E94E506609312017093130180931401BB
:10037000909315010895CF93DF9383E291E00E945B
:100380000004181619062CF483E291E00E94190467
:10039000EC010E947C01AB01BC012AE030E083E269
:1003A00091E00E949A0660E071E083E291E00E9491
:1003B00038060E947C01693C710581059105C4F0F5
:1003C000C634D10519F40E94EB0014C0C234D10523
:1003D00019F40E9405010EC0C235D10519F40E941E
:1003E000390108C0CC34D10529F40E941F0102C094
:1003F0000E94D10064EF71E080E090E0DF91CF9146
:100400000C946F021F920F920FB60F9211242F932C
:100410003F938F939F93AF93BF9380911B019091D4
:100420001C01A0911D01B0911E0130911A0123E021
:10043000230F2D3720F40196A11DB11D05C026E81C
:10044000230F0296A11DB11D20931A0180931B0159
:1004500090931C01A0931D01B0931E0180911F0178
:1004600090912001A0912101B09122010196A11D3E
:10047000B11D80931F0190932001A0932101B0939F
:100480002201BF91AF919F918F913F912F910F903A
:100490000FBE0F901F9018953FB7F89480911F01E1
:1004A00090912001A0912101B091220126B5A89B35
:1004B00005C02F3F19F00196A11DB11D3FBF662752
:1004C000782F892F9A2F620F711D811D911D42E097
:1004D000660F771F881F991F4A95D1F70895CF920D
:1004E000DF92EF92FF92CF93DF936B017C010E942A
:1004F0004C02EB01C114D104E104F10489F00E9423
:10050000E4060E944C026C1B7D0B683E734090F326
:1005100081E0C81AD108E108F108C851DC4FEACFE0
:10052000DF91CF91FF90EF90DF90CF9008958230D0
:10053000910538F0880F991F880F991F059701972B
:10054000F1F70895789484B5826084BD84B58160A4
:1005500084BD85B5826085BD85B5816085BDEEE6CB
:10056000F0E0808181608083E1E8F0E010828081AA
:1005700082608083808181608083E0E8F0E0808118
:1005800081608083E1EBF0E0808184608083E0EB38
:10059000F0E0808181608083EAE7F0E08081846020
:1005A000808380818260808380818160808380817C
:1005B000806880831092C10008951F93CF93DF93CA
:1005C000182FEB0161E00E946503209711F460E0B1
:1005D00004C0CF3FD10539F461E0812FDF91CF9185
:1005E0001F910C949E03E12FF0E0E859FF4FE49136
:1005F000E330F9F048F4E130B9F0E230A1F584B528
:10060000806284BDC8BD34C0E730E9F0E83019F13C
:10061000E43049F580918000806280938000D0931F
:100620008B00C0938A0024C084B5806884BDC7BD98
:100630001FC080918000806880938000D0938900E3
:10064000C093880015C08091B00080688093B0008E
:10065000C093B3000DC08091B00080628093B00061
:10066000C093B40005C0C038D1050CF0B5CFAFCFF2
:10067000DF91CF911F910895833081F028F481306C
:1006800099F08230A1F008958730A9F08830B9F050
:100690008430D1F4809180008F7D03C080918000F0
:1006A0008F7780938000089584B58F7702C084B5DA
:1006B0008F7D84BD08958091B0008F7703C08091B5
:1006C000B0008F7D8093B0000895CF93DF9390E0CA
:1006D000FC01E458FF4F2491FC01E057FF4F849147
:1006E000882349F190E0880F991FFC01E854FF4FDF
:1006F000A591B49182559F4FFC01C591D4919FB7AC
:10070000611108C0F8948C91209582238C93888184
:1007100082230AC0623051F4F8948C91322F3095C4
:1007200083238C938881822B888304C0F8948C91D6
:10073000822B8C939FBFDF91CF9108950F931F93CE
:10074000CF93DF931F92CDB7DEB7282F30E0F901AA
:10075000E859FF4F8491F901E458FF4F1491F901D2
:10076000E057FF4F04910023C9F0882321F06983EB
:100770000E943C036981E02FF0E0EE0FFF1FE2557D
:10078000FF4FA591B4919FB7F8948C91611103C06C
:100790001095812301C0812B8C939FBF0F90DF9117
:1007A000CF911F910F9108950F931F93762F90E093
:1007B000FC01E458FF4F6491FC01E057FF4FE491C6
:1007C0007111762FF0E0EE0FFF1FEC55FF4F859172
:1007D000949189019A013F70472F0E948C00611506
:1007E00071058105910531F06F5F7F4F8F4F9F4FEE
:1007F0009F7003C060E070E0CB011F910F910895DE
:10080000FC01818D228D90E0805C9F4F821B9109BD
:100810008F7399270895FC01918D828D981731F07F
:10082000828DE80FF11D858D90E008958FEF9FEF89
:100830000895FC01918D828D981761F0828DDF0102
:10084000A80FB11D5D968C91928D9F5F9F73928FC3
:1008500090E008958FEF9FEF08958DE995E0892B43
:1008600049F080E090E0892B29F00E949D058111DC
:100870000C9400000895FC01848DDF01A80FB11DC8
:10088000A35ABF4F2C91848D90E001968F739927C6
:10089000848FA689B7892C93A089B1898C918064B3
:1008A0008C93938D848D981306C00288F389E02D74
:1008B00080818F7D80830895CF93DF93EC01888DB5
:1008C0008823C9F0EA89FB89808185FD05C0A88954
:1008D000B9898C9186FD0FC00FB607FCF5CF8081DA
:1008E00085FFF2CFA889B9898C9185FFEDCFCE0124
:1008F0000E943B04E7CFDF91CF910895CF92DF9222
:10090000FF920F931F93CF93DF931F92CDB7DEB764
:100910006C0181E0D60158968C9358975B969C9118
:100920005B975C968C915C97981307C05096ED91FD
:10093000FC915197808185FD2EC0F601038D10E05A
:100940000F5F1F4F0F731127F02EF601848DF812E1
:1009500011C00FB607FCF9CFD6015096ED91FC916E
:100960005197808185FFF1CFC60169830E943B04C6
:100970006981EBCF838DE80FF11DE35AFF4F608350
:10098000D6015B960C935B975296ED91FC91539731
:10099000808180620CC0D6015696ED91FC915797EC
:1009A00060835096ED91FC915197808180648083A3
:1009B00081E090E00F90DF91CF911F910F91FF9018
:1009C000DF90CF900895BF92CF92DF92EF92FF9287
:1009D000CF93DF93EC016A017B01B22EE889F9899C
:1009E00082E08083411581EE580761057105A1F011
:1009F00060E079E08DE390E0A70196010E9407088E
:100A00002150310941095109569547953795279548
:100A1000211580E1380798F0E889F989108260E8AB
:100A200074E88EE190E0A70196010E94070821502A
:100A30003109410951095695479537952795EC8518
:100A4000FD853083EE85FF852083188EEC89FD8936
:100A5000B082EA89FB89808180618083EA89FB8991
:100A6000808188608083EA89FB89808180688083B7
:100A7000EA89FB8980818F7D8083DF91CF91FF9010
:100A8000EF90DF90CF90BF9008951F920F920FB616
:100A90000F9211242F938F939F93EF93FF93E091E5
:100AA0003301F09134018081E0913901F0913A01F4
:100AB00082FD12C0908180913C018F5F8F732091E5
:100AC0003D01821751F0E0913C01F0E0ED5DFE4FF9
:100AD000958F80933C0101C08081FF91EF919F91A0
:100AE0008F912F910F900FBE0F901F9018951F920E
:100AF0000F920FB60F9211242F933F934F935F9352
:100B00006F937F938F939F93AF93BF93EF93FF93D5
:100B100083E291E00E943B04FF91EF91BF91AF917E
:100B20009F918F917F916F915F914F913F912F9105
:100B30000F900FBE0F901F90189583E291E00E94D6
:100B4000000421E0892B09F420E0822F08951092FF
:100B500026011092250188EE93E0A0E0B0E080939A
:100B6000270190932801A0932901B0932A0186E0E0
:100B700091E0909324018093230185EC90E0909381
:100B8000300180932F0184EC90E0909332018093A8
:100B9000310180EC90E0909334018093330181EC3B
:100BA00090E0909336018093350182EC90E0909331
:100BB00038018093370186EC90E090933A0180935E
:100BC000390110923C0110923D0110923E011092A9
:100BD0003F01089508950E94A2020E94EA050E9422
:100BE0005301CDE2D4E00E94BB012097E1F30E94C3
:100BF0002D04F9CFCF92DF92EF92FF920F931F93C4
:100C0000CF93DF936C017A01EB01E60EF71E00E053
:100C100010E0CE15DF0561F06991D601ED91FC91F0
:100C20000190F081E02DC6010995080F191FF1CF41
:100C3000C801DF91CF911F910F91FF90EF90DF904E
:100C4000CF9008956115710581F0DB010D900020B2
:100C5000E9F7AD0141505109461B570BDC01ED91FD
:100C6000FC910280F381E02D099480E090E00895EA
:100C70000C942206DC01ED91FC910190F081E02DB5
:100C800009948F929F92AF92BF92CF92DF92EF9290
:100C9000FF920F931F93CF93DF93CDB7DEB7A1974A
:100CA0000FB6F894DEBF0FBECDBF7C01C42EE52F7A
:100CB000CB01D22E19A221E02D1510F02AE0D22E60
:100CC0008E010F5D1F4F8D2C912CA12CB12C6C2D02
:100CD0007E2FA50194010E9407088C2DD29E8019B9
:100CE0001124015011098A3014F4805D01C0895C1F
:100CF000F8018083211531054105510521F0C22EEF
:100D0000E32FCA01E4CFB801C7010E942206A196D1
:100D10000FB6F894DEBF0FBECDBFDF91CF911F910C
:100D20000F91FF90EF90DF90CF90BF90AF909F908A
:100D30008F900895CF92DF92EF92FF920F931F93BF
:100D4000CF93DF93EC016A017B012115310579F422
:100D5000E881F9810190F081E02D642FDF91CF913E
:100D60001F910F91FF90EF90DF90CF9009942A3060
:100D70003105E9F477FF1AC06DE20E943A068C0152
:100D800044275527BA014C195D096E097F092AE0ED
:100D9000CE010E944106800F911FDF91CF911F91DC
:100DA0000F91FF90EF90DF90CF9008952AE0B70168
:100DB000A601CE01DF91CF911F910F91FF90EF908F
:100DC000DF90CF900C944106089504D06894B1113F
:100DD000B5C0089598D088F09F5790F0B92F992703
:100DE000B751A0F0D1F0660F771F881F991F1AF036
:100DF000BA95C9F712C0B13081F09FD0B1E0089523
:100E00009CC0672F782F8827B85F39F0B93FCCF3A3
:100E1000869577956795B395D9F73EF4909580952B
:100E2000709561957F4F8F4F9F4F0895E89409C04B
:100E300097FB3EF490958095709561957F4F8F4F0D
:100E40009F4F9923A9F0F92F96E9BB279395F69523
:100E5000879577956795B795F111F8CFFAF4BB0FA1
:100E600011F460FF1BC06F5F7F4F8F4F9F4F16C005
:100E7000882311F096E911C0772321F09EE8872F8F
:100E8000762F05C0662371F096E8862F70E060E04B
:100E90002AF09A95660F771F881FDAF7880F9695C4
:100EA000879597F9089597F99F6780E870E060E06B
:100EB00008959FEF80EC089500240A9416161706F3
:100EC00018060906089500240A941216130614063B
:100ED00005060895092E0394000C11F4882352F09E
:100EE000BB0F40F4BF2B11F460FF04C06F5F7F4F56
:100EF0008F4F9F4F089557FD9058440F551F59F03D
:100F00005F3F71F04795880F97FB991F61F09F3FF6
:100F100079F087950895121613061406551FF2CF1F
:100F20004695F1DF08C0161617061806991FF1CF6F
:100F300086957105610508940895E894BB27662796
:100F40007727CB0197F908950BD0C4CFB5DF28F0F0
:100F5000BADF18F0952309F0A6CFABCF1124EECF5E
:100F6000CADFA0F3959FD1F3950F50E0551F629F04
:100F7000F001729FBB27F00DB11D639FAA27F00DF2
:100F8000B11DAA1F649F6627B00DA11D661F829F19
:100F90002227B00DA11D621F739FB00DA11D621FFE
:100FA000839FA00D611D221F749F3327A00D611D1B
:100FB000231F849F600D211D822F762F6A2F1124FD
:100FC0009F5750408AF0E1F088234AF0EE0FFF1F50
:100FD000BB1F661F771F881F91505040A9F79E3F87
:100FE000510570F060CFAACF5F3FECF3983EDCF381
:100FF000869577956795B795F795E7959F5FC1F7C4
:10100000FE2B880F911D9695879597F90895A1E27B
:101010001A2EAA1BBB1BFD010DC0AA1FBB1FEE1F72
:10102000FF1FA217B307E407F50720F0A21BB30BBD
:10103000E40BF50B661F771F881F991F1A9469F739
:1010400060957095809590959B01AC01BD01CF0195
:101050000895052E97FB1EF400940E94400857FD4A
:1010600007D00E94070807FC03D04EF40C944008F8
:1010700050954095309521953F4F4F4F5F4F0895C4
:1010800090958095709561957F4F8F4F9F4F0895F4
:10109000EE0FFF1F0590F491E02D0994F894FFCF17
:1010A0000A00000000007E04FA05000419040B0485
:0210B0005C04DE
:00000001FF
