:100000000C9462000C948A000C948A000C948A0070
:100010000C948A000C948A000C948A000C948A0038
:100020000C948A000C948A000C948A000C948A0028
:100030000C948A000C948A000C948A000C948A0018
:100040000C94A5020C948A000C94E8050C941A06F2
:100050000C948A000C948A000C948A000C948A00F8
:100060000C948A000C948A00000000080002010031
:100070000003040700000000000000000102040863
:100080001020408001020408102001020408102002
:10009000040404040404040402020202020203032E
:1000A00003030303000000002300260029000000D2
:1000B0000000250028002B0000000000240027007D
:1000C0002A004A0611241FBECFEFD8E0DEBFCDBF05
:1000D00011E0A0E0B1E0E6E3F2E102C005900D928C
:1000E000A231B107D9F721E0A2E1B1E001C01D9230
:1000F000A03CB207E1F710E0C4ECD0E004C02297C6
:10010000FE010E941509C23CD107C9F70E948E0664
:100110000C9419090C940000CF92DF92EF92FF9299
:100120000F931F93E82FF92F05C0015011092109E2
:10013000310961F1908196239417B9F305C00150FC
:1001400011092109310911F1908196239413F7CFF8
:10015000C12CD12CE12CF12C0AC08FEFC81AD80A7F
:10016000E80AF80A0C151D052E053F0579F0808177
:100170008623841791F36C2D7D2D8E2D9F2D1F913D
:100180000F91FF90EF90DF90CF90089560E070E0C6
:1001900080E090E01F910F91FF90EF90DF90CF9063
:1001A000089560E087E00E94410460E086E00E94DC
:1001B000410460E085E00E94410460E084E00E9428
:1001C000410460E070E089E00E94800360E070E03C
:1001D00083E00C94800361E087E00E94410460E0CA
:1001E00086E00E94410461E085E00E94410460E0F5
:1001F00084E00E9441046FEF70E089E00E94800378
:100200006FEF70E083E00C94800360E087E00E9471
:10021000410461E086E00E94410460E085E00E94C4
:10022000410461E084E00E9441046FEF70E089E0E6
:100230000E9480036FEF70E083E00C94800360E025
:1002400087E00E94410461E086E00E94410461E091
:1002500085E00E94410460E084E00E9441046FEF69
:1002600070E089E00E9480036FEF70E083E00C94FF
:10027000800361E087E00E94410460E086E00E9424
:10028000410460E085E00E94410461E084E00E9456
:1002900041046FEF70E089E00E9480036FEF70E02F
:1002A00083E00C94800361E087E00E94410460E0F9
:1002B00086E00E94410460E085E00E94410461E024
:1002C00084E00E9441046FEF70E089E00E948003A7
:1002D0006FEF70E083E00C94800326E040E855E285
:1002E00060E070E083E291E00E94860561E089E0D1
:1002F0000E94080461E087E00E94080461E086E053
:100300000E94080461E083E00E94080461E085E047
:100310000E94080461E084E00E94080461E088E033
:100320000E94080460E082E00C94080460E088E029
:100330000E94410482E090E00E943A0361E088E07C
:100340000E9441048AE090E00E943A0360E088E065
:100350000E94410420E432E44FE050E061E082E09A
:100360000E9477046093160170931701809318011F
:100370009093190122E030E040E050E00E94F40840
:10038000CA01B9010E94BF0726E933E44BE05DE3EF
:100390000E946F080E948C076093120170931301F2
:1003A000809314019093150108952F923F924F92DC
:1003B0005F926F927F928F929F92AF92BF92CF92F5
:1003C000DF92EF92FF920F931F93CF93DF93CDB7FE
:1003D000DEB7A8970FB6F894DEBF0FBECDBF83E29D
:1003E00091E00E94A304181619062CF483E291E010
:1003F0000E94BC048C010E949601AB01BC012AE062
:1004000030E083E291E00E943D0760E071E083E22A
:1004100091E00E94DB060E9496016531710581051D
:1004200091050CF447C00634110521F10234110581
:1004300019F40E94050120C00235110519F40E942B
:1004400039011AC00C34110519F40E941F0114C09F
:100450000335110589F40E94D1000EC00E94960157
:100460000E94BF079B01AC01C701B6010E9488072B
:10047000181614F00E94EB0064E670E080E090E053
:10048000A8960FB6F894DEBF0FBECDBFDF91CF9117
:100490001F910F91FF90EF90DF90CF90BF90AF90A2
:1004A0009F908F907F906F905F904F903F902F9094
:1004B0000C9412030E94D10064EF71E080E090E0A0
:1004C0000E9412038E010F5F1F4F88E2F801119204
:1004D0008A95E9F70E9453015E01F9E2AF0EB11C63
:1004E0000E9496010E94BF07F80161937193819366
:1004F00091938F016DE171E080E090E00E94120322
:100500000A151B0569F749805A806B807C808E0133
:100510000B5F1F4F212C312C812C912CF801C190A5
:10052000D190E190F1908F01A7019601C301B20132
:100530000E94880787FD02C0610174010A151B052E
:1005400009F48CCF16014701E9CF1F920F920FB625
:100550000F9211242F933F938F939F93AF93BF9349
:1005600080911B0190911C01A0911D01B0911E0171
:1005700030911A0123E0230F2D3720F40196A11D9D
:10058000B11D05C026E8230F0296A11DB11D2093C1
:100590001A0180931B0190931C01A0931D01B0933D
:1005A0001E0180911F0190912001A0912101B09125
:1005B00022010196A11DB11D80931F01909320017E
:1005C000A0932101B0932201BF91AF919F918F9190
:1005D0003F912F910F900FBE0F901F9018953FB72E
:1005E000F89480911F0190912001A0912101B09178
:1005F000220126B5A89B05C02F3F19F00196A11D29
:10060000B11D3FBF6627782F892F9A2F620F711D6A
:10061000811D911D42E0660F771F881F991F4A9523
:10062000D1F70895CF92DF92EF92FF92CF93DF93AD
:100630006B017C010E94EF02EB01C114D104E104C3
:10064000F10489F00E9487070E94EF026C1B7D0B6A
:10065000683E734090F381E0C81AD108E108F108C0
:10066000C851DC4FEACFDF91CF91FF90EF90DF9040
:10067000CF9008958230910538F0880F991F880F28
:10068000991F05970197F1F70895789484B58260D2
:1006900084BD84B5816084BD85B5826085BD85B526
:1006A000816085BDEEE6F0E0808181608083E1E8D5
:1006B000F0E010828081826080838081816080830D
:1006C000E0E8F0E0808181608083E1EBF0E0808110
:1006D00084608083E0EBF0E0808181608083EAE7E2
:1006E000F0E080818460808380818260808380816B
:1006F000816080838081806880831092C10008952A
:100700001F93CF93DF93182FEB0161E00E94080441
:10071000209711F460E004C0CF3FD10539F461E0C7
:10072000812FDF91CF911F910C944104E12FF0E0D4
:10073000E859FF4FE491E330F9F048F4E130B9F0C3
:10074000E230A1F584B5806284BDC8BD34C0E73015
:10075000E9F0E83019F1E43049F5809180008062D9
:1007600080938000D0938B00C0938A0024C084B50E
:10077000806884BDC7BD1FC0809180008068809361
:100780008000D0938900C093880015C08091B0008C
:1007900080688093B000C093B3000DC08091B0001A
:1007A00080628093B000C093B40005C0C038D1050A
:1007B0000CF0B5CFAFCFDF91CF911F91089583306B
:1007C00081F028F4813099F08230A1F008958730CB
:1007D000A9F08830B9F08430D1F4809180008F7D09
:1007E00003C0809180008F7780938000089584B546
:1007F0008F7702C084B58F7D84BD08958091B0004D
:100800008F7703C08091B0008F7D8093B0000895F2
:10081000CF93DF9390E0FC01E458FF4F2491FC015B
:10082000E057FF4F8491882349F190E0880F991F8A
:10083000FC01E854FF4FA591B49182559F4FFC01F4
:10084000C591D4919FB7611108C0F8948C912095FF
:1008500082238C93888182230AC0623051F4F894F9
:100860008C91322F309583238C938881822B8883BF
:1008700004C0F8948C91822B8C939FBFDF91CF9111
:1008800008950F931F93CF93DF931F92CDB7DEB7D9
:10089000282F30E0F901E859FF4F8491F901E4581D
:1008A000FF4F1491F901E057FF4F04910023C9F065
:1008B000882321F069830E94DF036981E02FF0E043
:1008C000EE0FFF1FE255FF4FA591B4919FB7F8942B
:1008D0008C91611103C01095812301C0812B8C93F1
:1008E0009FBF0F90DF91CF911F910F9108950F93AC
:1008F0001F93762F90E0FC01E458FF4F6491FC01B8
:10090000E057FF4FE4917111762FF0E0EE0FFF1FDB
:10091000EC55FF4F8591949189019A013F70472FC3
:100920000E948C00611571058105910531F06F5FA2
:100930007F4F8F4F9F4F9F7003C060E070E0CB01EF
:100940001F910F910895FC01818D228D90E0805CB4
:100950009F4F821B91098F7399270895FC01918DF8
:10096000828D981731F0828DE80FF11D858D90E012
:1009700008958FEF9FEF0895FC01918D828D981758
:1009800061F0828DDF01A80FB11D5D968C91928D73
:100990009F5F9F73928F90E008958FEF9FEF089570
:1009A00080E496E0892B49F080E090E0892B29F0E3
:1009B0000E94400681110C9400000895FC01848D72
:1009C000DF01A80FB11DA35ABF4F2C91848D90E079
:1009D00001968F739927848FA689B7892C93A08954
:1009E000B1898C9180648C93938D848D981306C00B
:1009F0000288F389E02D80818F7D80830895CF93D5
:100A0000DF93EC01888D8823C9F0EA89FB89808116
:100A100085FD05C0A889B9898C9186FD0FC00FB6E8
:100A200007FCF5CF808185FFF2CFA889B9898C9129
:100A300085FFEDCFCE010E94DE04E7CFDF91CF919D
:100A40000895CF92DF92FF920F931F93CF93DF937E
:100A50001F92CDB7DEB76C0181E0D60158968C931A
:100A600058975B969C915B975C968C915C979813DA
:100A700007C05096ED91FC915197808185FD2EC065
:100A8000F601038D10E00F5F1F4F0F731127F02E3B
:100A9000F601848DF81211C00FB607FCF9CFD6010C
:100AA0005096ED91FC915197808185FFF1CFC60161
:100AB00069830E94DE046981EBCF838DE80FF11D0D
:100AC000E35AFF4F6083D6015B960C935B97529677
:100AD000ED91FC915397808180620CC0D6015696AF
:100AE000ED91FC91579760835096ED91FC91519751
:100AF00080818064808381E090E00F90DF91CF91CE
:100B00001F910F91FF90DF90CF900895BF92CF92E9
:100B1000DF92EF92FF92CF93DF93EC016A017B01AA
:100B2000B22EE889F98982E08083411581EE580769
:100B300061057105A1F060E079E08DE390E0A70127
:100B400096010E94D2082150310941095109569558
:100B5000479537952795211580E1380798F0E88962
:100B6000F989108260E874E88EE190E0A7019601AF
:100B70000E94D208215031094109510956954795E3
:100B800037952795EC85FD853083EE85FF8520839D
:100B9000188EEC89FD89B082EA89FB8980818061A9
:100BA0008083EA89FB89808188608083EA89FB8968
:100BB000808180688083EA89FB8980818F7D808342
:100BC000DF91CF91FF90EF90DF90CF90BF9008958D
:100BD0001F920F920FB60F9211242F938F939F9312
:100BE000EF93FF93E0913301F09134018081E09124
:100BF0003901F0913A0182FD12C0908180913C014F
:100C00008F5F8F7320913D01821751F0E0913C017D
:100C1000F0E0ED5DFE4F958F80933C0101C0808137
:100C2000FF91EF919F918F912F910F900FBE0F9099
:100C30001F9018951F920F920FB60F9211242F93A9
:100C40003F934F935F936F937F938F939F93AF9354
:100C5000BF93EF93FF9383E291E00E94DE04FF9144
:100C6000EF91BF91AF919F918F917F916F915F9124
:100C70004F913F912F910F900FBE0F901F9018959D
:100C800083E291E00E94A30421E0892B09F420E093
:100C9000822F0895109226011092250188EE93E08C
:100CA000A0E0B0E08093270190932801A093290150
:100CB000B0932A0186E091E0909324018093230170
:100CC00085EC90E09093300180932F0184EC90E0CC
:100CD000909332018093310180EC90E09093340145
:100CE0008093330181EC90E090933601809335013D
:100CF00082EC90E0909338018093370186EC90E08D
:100D000090933A018093390110923C0110923D0179
:100D100010923E0110923F01089508950E944503EC
:100D20000E948D060E946D01C0EDD4E00E94D501A5
:100D30002097E1F30E94D004F9CFCF92DF92EF9297
:100D4000FF920F931F93CF93DF936C017A01EB0116
:100D5000E60EF71E00E010E0CE15DF0561F06991A8
:100D6000D601ED91FC910190F081E02DC60109952D
:100D7000080F191FF1CFC801DF91CF911F910F917B
:100D8000FF90EF90DF90CF9008956115710581F08D
:100D9000DB010D900020E9F7AD0141505109461BE0
:100DA000570BDC01ED91FC910280F381E02D099459
:100DB00080E090E008950C94C506DC01ED91FC9173
:100DC0000190F081E02D09948F929F92AF92BF9293
:100DD000CF92DF92EF92FF920F931F93CF93DF9307
:100DE000CDB7DEB7A1970FB6F894DEBF0FBECDBF6B
:100DF0007C01C42EE52FCB01D22E19A221E02D15A6
:100E000010F02AE0D22E8E010F5D1F4F8D2C912CF9
:100E1000A12CB12C6C2D7E2FA50194010E94D2082B
:100E20008C2DD29E80191124015011098A3014F49E
:100E3000805D01C0895CF801808321153105410581
:100E4000510521F0C22EE32FCA01E4CFB801C7013A
:100E50000E94C506A1960FB6F894DEBF0FBECDBFA7
:100E6000DF91CF911F910F91FF90EF90DF90CF9086
:100E7000BF90AF909F908F900895CF92DF92EF92A6
:100E8000FF920F931F93CF93DF93EC016A017B01D5
:100E90002115310579F4E881F9810190F081E02D87
:100EA000642FDF91CF911F910F91FF90EF90DF9012
:100EB000CF9009942A303105E9F477FF1AC06DE22A
:100EC0000E94DD068C0144275527BA014C195D09A3
:100ED0006E097F092AE0CE010E94E406800F911F6F
:100EE000DF91CF911F910F91FF90EF90DF90CF9006
:100EF00008952AE0B701A601CE01DF91CF911F919D
:100F00000F91FF90EF90DF90CF900C94E40608953E
:100F100071D008F481E0089504D06894B111D9C06B
:100F20000895BCD088F09F5790F0B92F9927B751FA
:100F3000A0F0D1F0660F771F881F991F1AF0BA959D
:100F4000C9F712C0B13081F0C3D0B1E00895C0C07C
:100F5000672F782F8827B85F39F0B93FCCF3869593
:100F600077956795B395D9F73EF4909580957095F0
:100F700061957F4F8F4F9F4F0895E89409C097FB6D
:100F80003EF490958095709561957F4F8F4F9F4F60
:100F90009923A9F0F92F96E9BB279395F6958795A4
:100FA00077956795B795F111F8CFFAF4BB0F11F467
:100FB00060FF1BC06F5F7F4F8F4F9F4F16C088230E
:100FC00011F096E911C0772321F09EE8872F762F44
:100FD00005C0662371F096E8862F70E060E02AF085
:100FE0009A95660F771F881FDAF7880F9695879571
:100FF00097F90895990F0008550FAA0BE0E8FEEF46
:1010000016161706E807F907C0F012161306E407CC
:10101000F50798F0621B730B840B950B39F40A26C5
:1010200061F0232B242B252B21F408950A2609F4A3
:10103000A140A6958FEF811D811D089597F99F67A7
:1010400080E870E060E008959FEF80EC0895002450
:101050000A941616170618060906089500240A941D
:1010600012161306140605060895092E0394000CA3
:1010700011F4882352F0BB0F40F4BF2B11F460FF32
:1010800004C06F5F7F4F8F4F9F4F089557FD90585B
:10109000440F551F59F05F3F71F04795880F97FB3C
:1010A000991F61F09F3F79F08795089512161306F6
:1010B0001406551FF2CF4695F1DF08C01616170625
:1010C0001806991FF1CF869571056105089408955A
:1010D000E894BB2766277727CB0197F908950BD0B3
:1010E000C4CFB5DF28F0BADF18F0952309F0A6CFFA
:1010F000ABCF1124EECFCADFA0F3959FD1F3950FAC
:1011000050E0551F629FF001729FBB27F00DB11D8B
:10111000639FAA27F00DB11DAA1F649F6627B00D1B
:10112000A11D661F829F2227B00DA11D621F739F04
:10113000B00DA11D621F839FA00D611D221F749F12
:101140003327A00D611D231F849F600D211D822F59
:10115000762F6A2F11249F5750408AF0E1F08823A0
:101160004AF0EE0FFF1FBB1F661F771F881F9150AD
:101170005040A9F79E3F510570F060CFAACF5F3F66
:10118000ECF3983EDCF3869577956795B795F795E0
:10119000E7959F5FC1F7FE2B880F911D9695879568
:1011A00097F90895A1E21A2EAA1BBB1BFD010DC0E1
:1011B000AA1FBB1FEE1FFF1FA217B307E407F50707
:1011C00020F0A21BB30BE40BF50B661F771F881FE3
:1011D000991F1A9469F760957095809590959B0179
:1011E000AC01BD01CF010895052E97FB1EF40094BC
:1011F0000E940B0957FD07D00E94D20807FC03D0BC
:101200004EF40C940B0950954095309521953F4F25
:101210004F4F5F4F089590958095709561957F4FE2
:101220008F4F9F4F0895EE0FFF1F0590F491E02D13
:061230000994F894FFCFC1
:101236000A000000000021059D06A304BC04AE04BC
:02124600FF04A3
:00000001FF
